:020000020000FC
:020000003DC001
:020068007AC05C
:10007C000FEF0DBF04E00EBF00E805BF05BF0E94E7
:10008C00630078943C9A00C0449A17E5ABE1B1E068
:10009C0022E00E947C0000EA11271A95F1F70A95DC
:1000AC00E1F7449817E5A8E0B1E024E000EA112755
:1000BC001A95F1F70A95E1F7E7CF0CE50093B80034
:1000CC0000E00093B90000270093BB0004E000930C
:1000DC00BC0000E000930101089510910101089506
:1000EC0010910301089510910201089500910101EE
:1000FC00003011F0102F0895110F10930001A093F0
:10010C000501B093040120931A0101E00093010151
:10011C0005EA0093BC0011270895009101010030FD
:10012C0011F0102F08950894111F10930001A09343
:10013C000501B09304012093060101E00093010135
:10014C0005EA0093BC001127089554C064C067C031
:10015C0083C00F920FB60F920F93AF93BF93009182
:10016C00B900087F0830A9F0003199F00833E9F0A4
:10017C000831F9F00032A9F00832D9F00033C9F196
:10018C00003419F3083411F3003509F3083501F381
:10019C0075C0009100010093BB0005E80093BC0002
:1001AC0073C00FEF0093030169C005EA0093BC0014
:1001BC006BC000911A01002391F00A9500931A016B
:1001CC00A0910501B09104010D910093BB00A09387
:1001DC000501B093040105E80093BC0055C004E987
:1001EC000093BC0000E0009301010FEF0093BB00F3
:1001FC004BC044C0002700930701009302010091FB
:10020C000601002321F405E80093BC003DC005EC79
:10021C000093BC0039C00FEF009303012FC0109165
:10022C00BB00A0910501B09104011D930091070141
:10023C00039500930701109106011A95101744F0CD
:10024C00A0930501B093040105EC0093BC001CC005
:10025C0005E80093BC0018C01091BB00A0910501EB
:10026C00B09104011C9300E00093010104E9009398
:10027C00BC00009107010093020106C004E000934A
:10028C00BC000FEF0093BB00BF91AF910F910F908B
:10029C000FBE0F9018952C912F70239523952A95AE
:1002AC000E947401DB2FCA2FC20F0027D01F1883A6
:1002BC001DCF2C912F70239523952A950E947401A4
:1002CC00DB2FCA2FC20F0027D01F0881011721F086
:1002DC0012E0109301010895112708950F931F93B5
:1002EC002F93AF93BF9311270D911027110F08F483
:1002FC0011602A95C9F7BF91AF912F911F910F9162
:02030C00089552
:00000001FF
