:020000020000FC
:020000003DC001
:0200680043C093
:10007C000FEF0DBF04E00EBF00E805BF05BF0E94E7
:10008C005F000E946F007894A7E1B1E001E10D934D
:10009C00000F0D93000F0D93000F0C9304E00093D1
:1000AC001601009116010023E1F704E000931601FC
:1000BC00F8CF0CE50093B80000E00093B9000FEA0C
:1000CC000093BA0000270093BD0004E00093BC002D
:1000DC00089505EC0093BC00089553C063C063C041
:1000EC007BC07AC00F920FB60F920F931F930091A3
:1000FC00B900087F0036D9F0083619F1003711F134
:10010C00083701F10038F9F00838C1F10039B9F1BC
:10011C000839A9F1003AA1F1083AF9F2003BF1F2E1
:10012C00083BE9F2003CE1F2083CD9F256C001E090
:10013C000093130101E000931401002700930001C8
:10014C004CC04BC04AC01091BB0000910001023161
:10015C0024F001E800932C0140C0AF93BF930395AA
:10016C0000930001A0911301B09114011D93A09371
:10017C001301B0931401BF91AF912FC0E4CF2DC0E8
:10018C002CC0AF93BF93A7E1B1E00D910093BB00DE
:10019C00A0932901B0932A0101E000932B01BF9198
:1001AC00AF911BC0EECF00912B01109116010117DE
:1001BC0094F4039500932B01AF93BF93A091290165
:1001CC00B0912A010D910093BB00A0932901B0932B
:1001DC002A01BF91AF9101C000C005EC0093BC0097
:0C01EC001F910F910F900FBE0F901895FF
:00000001FF
