:020000020000FC
:020000003DC001
:020068004BC08B
:10007C000FEF0DBF04E00EBF00E805BF05BF0E94E7
:10008C005F000E946F007894A6E1B1E001E10D934E
:10009C00000F0D93000F0D93000F0C9304E00093D1
:1000AC001501009115010023E1F704E000931501FF
:1000BC00F8CF0CE50093B80000E00093B9000BE416
:1000CC000093BA0000270093BD0004E00093BC002D
:1000DC00089500E000932C0105EC0093BC000895FA
:1000EC0040C05AC05AC059C059C067C077C077C009
:1000FC008FC08EC00F920FB60F920F931F9300916B
:10010C00B900087F0036D9F0083649F1003741F1C3
:10011C00083731F1003821F3083819F3003911F39D
:10012C00083909F3003A01F3083AF9F2003BF1F20D
:10013C00083BE9F2003CE1F2083CD9F26AC001E06C
:10014C000093130101E000931401002700930001B8
:10015C0000E000932B0101E000932C015AC059C020
:10016C0058C01091BB0000910001023124F001E055
:10017C0000932B014EC0AF93BF93039500930001E6
:10018C00A0911301B09114011D93A0931301B0938E
:10019C001401BF91AF913DC0E4CF3BC000912C0145
:1001AC00013021F000E000932C0133C002E00093F9
:1001BC002C0104E00093BC002CC0AF93BF93A6E1CC
:1001CC00B1E00D910093BB00A0932801B0932901DD
:1001DC0001E000932A01BF91AF911BC0EECF0091BB
:1001EC002A0110911501011794F4039500932A012B
:1001FC00AF93BF93A0912801B09129010D91009369
:10020C00BB00A0932801B0932901BF91AF9101C00D
:10021C0000C005EC0093BC001F910F910F900FBE16
:04022C000F90189582
:00000001FF
